{
  "contractName": "VCoinTokenSale",
  "abi": [
    {
      "constant": true,
      "inputs": [],
      "name": "tokenContract",
      "outputs": [
        {
          "name": "",
          "type": "address"
        }
      ],
      "payable": false,
      "stateMutability": "view",
      "type": "function",
      "signature": "0x55a373d6"
    },
    {
      "inputs": [
        {
          "name": "_tokenContract",
          "type": "address"
        }
      ],
      "payable": false,
      "stateMutability": "nonpayable",
      "type": "constructor",
      "signature": "constructor"
    }
  ],
  "bytecode": "0x608060405234801561001057600080fd5b506040516020806101bb8339810180604052602081101561003057600080fd5b8101908080519060200190929190505050336000806101000a81548173ffffffffffffffffffffffffffffffffffffffff021916908373ffffffffffffffffffffffffffffffffffffffff16021790555080600160006101000a81548173ffffffffffffffffffffffffffffffffffffffff021916908373ffffffffffffffffffffffffffffffffffffffff1602179055505060ea806100d16000396000f3fe608060405260043610603f576000357c0100000000000000000000000000000000000000000000000000000000900463ffffffff16806355a373d6146044575b600080fd5b348015604f57600080fd5b5060566098565b604051808273ffffffffffffffffffffffffffffffffffffffff1673ffffffffffffffffffffffffffffffffffffffff16815260200191505060405180910390f35b600160009054906101000a900473ffffffffffffffffffffffffffffffffffffffff168156fea165627a7a7230582049865787278a5ad5d19b157689f8b4bc8f9c58093c98960c8122c0827a168e510029",
  "source": "pragma solidity >=0.4.21 <0.6.0;\n\nimport \"./VCoinToken.sol\";\n\ncontract VCoinTokenSale {\n  // fields vars will be persisted through blockchain and come with getter function\n  address admin;\n  VCoinToken public tokenContract;\n\n  // Constructor\n  constructor(VCoinToken _tokenContract) public {\n    // Assign an admin\n    admin = msg.sender;\n    tokenContract = _tokenContract;\n    // Add a reference to the Token contract\n    // Token prices\n  }\n\n}\n",
  "sourcePath": "/Users/strider/Documents/BlockChain/VCoin/contracts/VCoinTokenSale.sol",
  "compiler": {
    "name": "solc",
    "version": "0.5.0+commit.1d4f565a.Emscripten.clang"
  },
  "schemaVersion": "3.0.1",
  "updatedAt": "2019-02-28T12:57:48.775Z",
  "devdoc": {
    "methods": {}
  },
  "userdoc": {
    "methods": {}
  }
}