{
  "contractName": "VCoinToken",
  "abi": [
    {
      "constant": true,
      "inputs": [],
      "name": "name",
      "outputs": [
        {
          "name": "",
          "type": "string"
        }
      ],
      "payable": false,
      "stateMutability": "view",
      "type": "function",
      "signature": "0x06fdde03"
    },
    {
      "constant": true,
      "inputs": [],
      "name": "totalSupply",
      "outputs": [
        {
          "name": "",
          "type": "uint256"
        }
      ],
      "payable": false,
      "stateMutability": "view",
      "type": "function",
      "signature": "0x18160ddd"
    },
    {
      "constant": true,
      "inputs": [
        {
          "name": "",
          "type": "address"
        }
      ],
      "name": "balanceOf",
      "outputs": [
        {
          "name": "",
          "type": "uint256"
        }
      ],
      "payable": false,
      "stateMutability": "view",
      "type": "function",
      "signature": "0x70a08231"
    },
    {
      "constant": true,
      "inputs": [],
      "name": "symbol",
      "outputs": [
        {
          "name": "",
          "type": "string"
        }
      ],
      "payable": false,
      "stateMutability": "view",
      "type": "function",
      "signature": "0x95d89b41"
    },
    {
      "constant": true,
      "inputs": [
        {
          "name": "",
          "type": "address"
        },
        {
          "name": "",
          "type": "address"
        }
      ],
      "name": "allowance",
      "outputs": [
        {
          "name": "",
          "type": "uint256"
        }
      ],
      "payable": false,
      "stateMutability": "view",
      "type": "function",
      "signature": "0xdd62ed3e"
    },
    {
      "inputs": [
        {
          "name": "_initialSupply",
          "type": "uint256"
        }
      ],
      "payable": false,
      "stateMutability": "nonpayable",
      "type": "constructor",
      "signature": "constructor"
    },
    {
      "anonymous": false,
      "inputs": [
        {
          "indexed": true,
          "name": "_from",
          "type": "address"
        },
        {
          "indexed": true,
          "name": "_to",
          "type": "address"
        },
        {
          "indexed": false,
          "name": "_value",
          "type": "uint256"
        }
      ],
      "name": "Transfer",
      "type": "event",
      "signature": "0xddf252ad1be2c89b69c2b068fc378daa952ba7f163c4a11628f55a4df523b3ef"
    },
    {
      "anonymous": false,
      "inputs": [
        {
          "indexed": true,
          "name": "_owner",
          "type": "address"
        },
        {
          "indexed": true,
          "name": "_spender",
          "type": "address"
        },
        {
          "indexed": false,
          "name": "_value",
          "type": "uint256"
        }
      ],
      "name": "Approval",
      "type": "event",
      "signature": "0x8c5be1e5ebec7d5bd14f71427d1e84f3dd0314c0f7b2291e5b200ac8c7c3b925"
    },
    {
      "constant": false,
      "inputs": [
        {
          "name": "_to",
          "type": "address"
        },
        {
          "name": "_value",
          "type": "uint256"
        }
      ],
      "name": "transfer",
      "outputs": [
        {
          "name": "success",
          "type": "bool"
        }
      ],
      "payable": false,
      "stateMutability": "nonpayable",
      "type": "function",
      "signature": "0xa9059cbb"
    },
    {
      "constant": false,
      "inputs": [
        {
          "name": "_spender",
          "type": "address"
        },
        {
          "name": "_value",
          "type": "uint256"
        }
      ],
      "name": "approve",
      "outputs": [
        {
          "name": "success",
          "type": "bool"
        }
      ],
      "payable": false,
      "stateMutability": "nonpayable",
      "type": "function",
      "signature": "0x095ea7b3"
    },
    {
      "constant": false,
      "inputs": [
        {
          "name": "_from",
          "type": "address"
        },
        {
          "name": "_to",
          "type": "address"
        },
        {
          "name": "_value",
          "type": "uint256"
        }
      ],
      "name": "transferFrom",
      "outputs": [
        {
          "name": "success",
          "type": "bool"
        }
      ],
      "payable": false,
      "stateMutability": "nonpayable",
      "type": "function",
      "signature": "0x23b872dd"
    }
  ],
  "bytecode": "0x60806040526040805190810160405280600b81526020017f56436f696e20546f6b656e0000000000000000000000000000000000000000008152506000908051906020019061004f92919061012a565b506040805190810160405280600581526020017f56434f494e0000000000000000000000000000000000000000000000000000008152506001908051906020019061009b92919061012a565b503480156100a857600080fd5b50604051602080610c84833981018060405260208110156100c857600080fd5b810190808051906020019092919050505080600360003373ffffffffffffffffffffffffffffffffffffffff1673ffffffffffffffffffffffffffffffffffffffff1681526020019081526020016000208190555080600281905550506101cf565b828054600181600116156101000203166002900490600052602060002090601f016020900481019282601f1061016b57805160ff1916838001178555610199565b82800160010185558215610199579182015b8281111561019857825182559160200191906001019061017d565b5b5090506101a691906101aa565b5090565b6101cc91905b808211156101c85760008160009055506001016101b0565b5090565b90565b610aa6806101de6000396000f3fe60806040526004361061008e576000357c0100000000000000000000000000000000000000000000000000000000900463ffffffff16806306fdde0314610093578063095ea7b31461012357806318160ddd1461019657806323b872dd146101c157806370a082311461025457806395d89b41146102b9578063a9059cbb14610349578063dd62ed3e146103bc575b600080fd5b34801561009f57600080fd5b506100a8610441565b6040518080602001828103825283818151815260200191508051906020019080838360005b838110156100e85780820151818401526020810190506100cd565b50505050905090810190601f1680156101155780820380516001836020036101000a031916815260200191505b509250505060405180910390f35b34801561012f57600080fd5b5061017c6004803603604081101561014657600080fd5b81019080803573ffffffffffffffffffffffffffffffffffffffff169060200190929190803590602001909291905050506104df565b604051808215151515815260200191505060405180910390f35b3480156101a257600080fd5b506101ab6105d1565b6040518082815260200191505060405180910390f35b3480156101cd57600080fd5b5061023a600480360360608110156101e457600080fd5b81019080803573ffffffffffffffffffffffffffffffffffffffff169060200190929190803573ffffffffffffffffffffffffffffffffffffffff169060200190929190803590602001909291905050506105d7565b604051808215151515815260200191505060405180910390f35b34801561026057600080fd5b506102a36004803603602081101561027757600080fd5b81019080803573ffffffffffffffffffffffffffffffffffffffff169060200190929190505050610846565b6040518082815260200191505060405180910390f35b3480156102c557600080fd5b506102ce61085e565b6040518080602001828103825283818151815260200191508051906020019080838360005b8381101561030e5780820151818401526020810190506102f3565b50505050905090810190601f16801561033b5780820380516001836020036101000a031916815260200191505b509250505060405180910390f35b34801561035557600080fd5b506103a26004803603604081101561036c57600080fd5b81019080803573ffffffffffffffffffffffffffffffffffffffff169060200190929190803590602001909291905050506108fc565b604051808215151515815260200191505060405180910390f35b3480156103c857600080fd5b5061042b600480360360408110156103df57600080fd5b81019080803573ffffffffffffffffffffffffffffffffffffffff169060200190929190803573ffffffffffffffffffffffffffffffffffffffff169060200190929190505050610a55565b6040518082815260200191505060405180910390f35b60008054600181600116156101000203166002900480601f0160208091040260200160405190810160405280929190818152602001828054600181600116156101000203166002900480156104d75780601f106104ac576101008083540402835291602001916104d7565b820191906000526020600020905b8154815290600101906020018083116104ba57829003601f168201915b505050505081565b600081600460003373ffffffffffffffffffffffffffffffffffffffff1673ffffffffffffffffffffffffffffffffffffffff16815260200190815260200160002060008573ffffffffffffffffffffffffffffffffffffffff1673ffffffffffffffffffffffffffffffffffffffff168152602001908152602001600020819055508273ffffffffffffffffffffffffffffffffffffffff163373ffffffffffffffffffffffffffffffffffffffff167f8c5be1e5ebec7d5bd14f71427d1e84f3dd0314c0f7b2291e5b200ac8c7c3b925846040518082815260200191505060405180910390a36001905092915050565b60025481565b600081600360008673ffffffffffffffffffffffffffffffffffffffff1673ffffffffffffffffffffffffffffffffffffffff168152602001908152602001600020541015151561062757600080fd5b81600460008673ffffffffffffffffffffffffffffffffffffffff1673ffffffffffffffffffffffffffffffffffffffff16815260200190815260200160002060003373ffffffffffffffffffffffffffffffffffffffff1673ffffffffffffffffffffffffffffffffffffffff16815260200190815260200160002054101515156106b257600080fd5b81600360008673ffffffffffffffffffffffffffffffffffffffff1673ffffffffffffffffffffffffffffffffffffffff1681526020019081526020016000206000828254039250508190555081600360008573ffffffffffffffffffffffffffffffffffffffff1673ffffffffffffffffffffffffffffffffffffffff1681526020019081526020016000206000828254019250508190555081600460008673ffffffffffffffffffffffffffffffffffffffff1673ffffffffffffffffffffffffffffffffffffffff16815260200190815260200160002060003373ffffffffffffffffffffffffffffffffffffffff1673ffffffffffffffffffffffffffffffffffffffff168152602001908152602001600020600082825403925050819055508273ffffffffffffffffffffffffffffffffffffffff168473ffffffffffffffffffffffffffffffffffffffff167fddf252ad1be2c89b69c2b068fc378daa952ba7f163c4a11628f55a4df523b3ef846040518082815260200191505060405180910390a3600190509392505050565b60036020528060005260406000206000915090505481565b60018054600181600116156101000203166002900480601f0160208091040260200160405190810160405280929190818152602001828054600181600116156101000203166002900480156108f45780601f106108c9576101008083540402835291602001916108f4565b820191906000526020600020905b8154815290600101906020018083116108d757829003601f168201915b505050505081565b600081600360003373ffffffffffffffffffffffffffffffffffffffff1673ffffffffffffffffffffffffffffffffffffffff168152602001908152602001600020541015151561094c57600080fd5b81600360003373ffffffffffffffffffffffffffffffffffffffff1673ffffffffffffffffffffffffffffffffffffffff1681526020019081526020016000206000828254039250508190555081600360008573ffffffffffffffffffffffffffffffffffffffff1673ffffffffffffffffffffffffffffffffffffffff168152602001908152602001600020600082825401925050819055508273ffffffffffffffffffffffffffffffffffffffff163373ffffffffffffffffffffffffffffffffffffffff167fddf252ad1be2c89b69c2b068fc378daa952ba7f163c4a11628f55a4df523b3ef846040518082815260200191505060405180910390a36001905092915050565b600460205281600052604060002060205280600052604060002060009150915050548156fea165627a7a723058203da7fcb33b3671dc652c0315ab8f1d3157c178aae7caba48c5bb068b86f59a070029",
  "source": "pragma solidity >=0.4.21 <0.6.0;\n\ncontract VCoinToken {\n  // fields vars will be persisted through blockchain and come with getter function\n  string public name = \"VCoin Token\";\n  string public symbol = \"VCOIN\";\n  uint256 public totalSupply;\n\n  event Transfer(\n      address indexed _from,\n      address indexed _to,\n      uint256 _value\n  );\n\n  event Approval(\n    address indexed _owner,\n    address indexed _spender,\n    uint256 _value\n  );\n\n  mapping (address => uint256) public balanceOf;\n  mapping (address => mapping(address => uint256)) public allowance;\n\n  // Constructor\n  constructor(uint256 _initialSupply) public {\n    balanceOf[msg.sender] = _initialSupply;\n    totalSupply = _initialSupply; // prefix loca l var with\n    // allocate the initial supply\n  }\n\n  // Transfer, trigger Transfer Event\n  // Return a boolean\n  // Exception if account doesn't have enough balance\n  function transfer(address _to, uint256 _value) public returns (bool success) {\n    require(balanceOf[msg.sender] >= _value);\n\n    balanceOf[msg.sender] -= _value;\n    balanceOf[_to] += _value;\n\n    emit Transfer(msg.sender, _to, _value);\n\n    return true;\n  }\n\n  function approve(address _spender, uint256 _value) public returns (bool success) {\n    allowance[msg.sender][_spender] = _value;\n\n    emit Approval(msg.sender, _spender, _value);\n\n    return true;\n  }\n\n  function transferFrom(address _from, address _to, uint256 _value) public returns (bool success) {\n    // Require _from has enough tokens\n    require(balanceOf[_from] >= _value);\n    // Require allowance is big enough\n    require(allowance[_from][msg.sender] >= _value);\n\n    // Change the balance\n    balanceOf[_from] -= _value;\n    balanceOf[_to] += _value;\n\n    // Update the allowance\n    allowance[_from][msg.sender] -= _value;\n\n    // Transfer event\n    emit Transfer(_from, _to, _value);\n\n    // return a boolean\n    return true;\n  }\n}\n",
  "sourcePath": "/Users/strider/Documents/BlockChain/VCoin/contracts/VCoinToken.sol",
  "compiler": {
    "name": "solc",
    "version": "0.5.0+commit.1d4f565a.Emscripten.clang"
  },
  "schemaVersion": "3.0.1",
  "updatedAt": "2019-03-03T03:48:39.839Z",
  "devdoc": {
    "methods": {}
  },
  "userdoc": {
    "methods": {}
  }
}